{
  "contracts/Bid.sol": {
    "Bid": {
      "abi": [
        {
          "inputs": [
            {
              "internalType": "uint256",
              "name": "_curBid",
              "type": "uint256"
            }
          ],
          "stateMutability": "nonpayable",
          "type": "constructor"
        },
        {
          "anonymous": false,
          "inputs": [
            {
              "indexed": true,
              "internalType": "address",
              "name": "previousOwner",
              "type": "address"
            },
            {
              "indexed": true,
              "internalType": "address",
              "name": "newOwner",
              "type": "address"
            }
          ],
          "name": "OwnershipTransferred",
          "type": "event"
        },
        {
          "anonymous": false,
          "inputs": [
            {
              "indexed": false,
              "internalType": "uint256",
              "name": "adId",
              "type": "uint256"
            },
            {
              "indexed": false,
              "internalType": "uint256",
              "name": "value",
              "type": "uint256"
            }
          ],
          "name": "newAd",
          "type": "event"
        },
        {
          "anonymous": false,
          "inputs": [
            {
              "indexed": false,
              "internalType": "address",
              "name": "addr",
              "type": "address"
            }
          ],
          "name": "newAdvertiser",
          "type": "event"
        },
        {
          "inputs": [
            {
              "internalType": "uint256",
              "name": "",
              "type": "uint256"
            }
          ],
          "name": "advertisers",
          "outputs": [
            {
              "internalType": "address",
              "name": "id",
              "type": "address"
            },
            {
              "internalType": "uint256",
              "name": "bidCount",
              "type": "uint256"
            },
            {
              "internalType": "bool",
              "name": "isRegistered",
              "type": "bool"
            }
          ],
          "stateMutability": "view",
          "type": "function"
        },
        {
          "inputs": [],
          "name": "owner",
          "outputs": [
            {
              "internalType": "address",
              "name": "",
              "type": "address"
            }
          ],
          "stateMutability": "view",
          "type": "function"
        },
        {
          "inputs": [
            {
              "internalType": "uint256",
              "name": "_value",
              "type": "uint256"
            },
            {
              "components": [
                {
                  "internalType": "address",
                  "name": "id",
                  "type": "address"
                },
                {
                  "internalType": "uint256",
                  "name": "bidCount",
                  "type": "uint256"
                },
                {
                  "internalType": "bool",
                  "name": "isRegistered",
                  "type": "bool"
                }
              ],
              "internalType": "struct Bid.Advertiser",
              "name": "_advertiser",
              "type": "tuple"
            }
          ],
          "name": "placeBid",
          "outputs": [],
          "stateMutability": "nonpayable",
          "type": "function"
        },
        {
          "inputs": [
            {
              "internalType": "address",
              "name": "_address",
              "type": "address"
            }
          ],
          "name": "register",
          "outputs": [],
          "stateMutability": "nonpayable",
          "type": "function"
        },
        {
          "inputs": [],
          "name": "renounceOwnership",
          "outputs": [],
          "stateMutability": "nonpayable",
          "type": "function"
        },
        {
          "inputs": [
            {
              "internalType": "address",
              "name": "newOwner",
              "type": "address"
            }
          ],
          "name": "transferOwnership",
          "outputs": [],
          "stateMutability": "nonpayable",
          "type": "function"
        }
      ],
      "evm": {
        "bytecode": {
          "linkReferences": {},
          "object": "6080604052600060035534801561001557600080fd5b50604051610de4380380610de483398181016040528101906100379190610141565b61005361004861006060201b60201c565b61006860201b60201c565b806004819055505061018b565b600033905090565b60008060009054906101000a900473ffffffffffffffffffffffffffffffffffffffff169050816000806101000a81548173ffffffffffffffffffffffffffffffffffffffff021916908373ffffffffffffffffffffffffffffffffffffffff1602179055508173ffffffffffffffffffffffffffffffffffffffff168173ffffffffffffffffffffffffffffffffffffffff167f8be0079c531659141344cd1fd0a4f28419497f9722a3daafe3b4186f6b6457e060405160405180910390a35050565b60008151905061013b81610174565b92915050565b60006020828403121561015357600080fd5b60006101618482850161012c565b91505092915050565b6000819050919050565b61017d8161016a565b811461018857600080fd5b50565b610c4a8061019a6000396000f3fe608060405234801561001057600080fd5b50600436106100625760003560e01c80634420e48614610067578063715018a6146100835780638da5cb5b1461008d578063baf19228146100ab578063f2ac8065146100dd578063f2fde38b146100f9575b600080fd5b610081600480360381019061007c91906107c2565b610115565b005b61008b610361565b005b6100956103e9565b6040516100a291906109a3565b60405180910390f35b6100c560048036038101906100c091906107eb565b610412565b6040516100d4939291906109be565b60405180910390f35b6100f760048036038101906100f29190610814565b610479565b005b610113600480360381019061010e91906107c2565b61055f565b005b61011d610657565b73ffffffffffffffffffffffffffffffffffffffff1661013b6103e9565b73ffffffffffffffffffffffffffffffffffffffff1614610191576040517f08c379a000000000000000000000000000000000000000000000000000000000815260040161018890610a35565b60405180910390fd5b60005b60018054905081101561035d57600181815481106101db577f4e487b7100000000000000000000000000000000000000000000000000000000600052603260045260246000fd5b906000526020600020906003020160000160009054906101000a900473ffffffffffffffffffffffffffffffffffffffff1673ffffffffffffffffffffffffffffffffffffffff168273ffffffffffffffffffffffffffffffffffffffff161461034a57600160405180606001604052808473ffffffffffffffffffffffffffffffffffffffff1681526020016000815260200160011515815250908060018154018082558091505060019003906000526020600020906003020160009091909190915060008201518160000160006101000a81548173ffffffffffffffffffffffffffffffffffffffff021916908373ffffffffffffffffffffffffffffffffffffffff1602179055506020820151816001015560408201518160020160006101000a81548160ff02191690831515021790555050507f0105f6c094a099ddea728db989def4f78de0e6d426fe3d417e1c3ce4441f5a388260405161034191906109a3565b60405180910390a15b808061035590610b28565b915050610194565b5050565b610369610657565b73ffffffffffffffffffffffffffffffffffffffff166103876103e9565b73ffffffffffffffffffffffffffffffffffffffff16146103dd576040517f08c379a00000000000000000000000000000000000000000000000000000000081526004016103d490610a35565b60405180910390fd5b6103e7600061065f565b565b60008060009054906101000a900473ffffffffffffffffffffffffffffffffffffffff16905090565b6001818154811061042257600080fd5b90600052602060002090600302016000915090508060000160009054906101000a900473ffffffffffffffffffffffffffffffffffffffff16908060010154908060020160009054906101000a900460ff16905083565b60045482116104bd576040517f08c379a00000000000000000000000000000000000000000000000000000000081526004016104b490610a15565b60405180910390fd5b600115158160400151151514610508576040517f08c379a00000000000000000000000000000000000000000000000000000000081526004016104ff90610a55565b60405180910390fd5b6003600081548092919061051b90610b28565b91905055507f9565d7c8e506cdb71fd2c68a5d00ad8f7a8afc7391506dc141b0cb0397de696460035483604051610553929190610a75565b60405180910390a15050565b610567610657565b73ffffffffffffffffffffffffffffffffffffffff166105856103e9565b73ffffffffffffffffffffffffffffffffffffffff16146105db576040517f08c379a00000000000000000000000000000000000000000000000000000000081526004016105d290610a35565b60405180910390fd5b600073ffffffffffffffffffffffffffffffffffffffff168173ffffffffffffffffffffffffffffffffffffffff16141561064b576040517f08c379a0000000000000000000000000000000000000000000000000000000008152600401610642906109f5565b60405180910390fd5b6106548161065f565b50565b600033905090565b60008060009054906101000a900473ffffffffffffffffffffffffffffffffffffffff169050816000806101000a81548173ffffffffffffffffffffffffffffffffffffffff021916908373ffffffffffffffffffffffffffffffffffffffff1602179055508173ffffffffffffffffffffffffffffffffffffffff168173ffffffffffffffffffffffffffffffffffffffff167f8be0079c531659141344cd1fd0a4f28419497f9722a3daafe3b4186f6b6457e060405160405180910390a35050565b60008135905061073281610bcf565b92915050565b60008135905061074781610be6565b92915050565b60006060828403121561075f57600080fd5b6107696060610a9e565b9050600061077984828501610723565b600083015250602061078d848285016107ad565b60208301525060406107a184828501610738565b60408301525092915050565b6000813590506107bc81610bfd565b92915050565b6000602082840312156107d457600080fd5b60006107e284828501610723565b91505092915050565b6000602082840312156107fd57600080fd5b600061080b848285016107ad565b91505092915050565b6000806080838503121561082757600080fd5b6000610835858286016107ad565b92505060206108468582860161074d565b9150509250929050565b61085981610ae0565b82525050565b61086881610af2565b82525050565b600061087b602683610acf565b91507f4f776e61626c653a206e6577206f776e657220697320746865207a65726f206160008301527f64647265737300000000000000000000000000000000000000000000000000006020830152604082019050919050565b60006108e1601c83610acf565b91507f706c65617365206269642061626f76652063757272656e7420626964000000006000830152602082019050919050565b6000610921602083610acf565b91507f4f776e61626c653a2063616c6c6572206973206e6f7420746865206f776e65726000830152602082019050919050565b6000610961601c83610acf565b91507f706c6561736520726567697374657220796f75722061646472657373000000006000830152602082019050919050565b61099d81610b1e565b82525050565b60006020820190506109b86000830184610850565b92915050565b60006060820190506109d36000830186610850565b6109e06020830185610994565b6109ed604083018461085f565b949350505050565b60006020820190508181036000830152610a0e8161086e565b9050919050565b60006020820190508181036000830152610a2e816108d4565b9050919050565b60006020820190508181036000830152610a4e81610914565b9050919050565b60006020820190508181036000830152610a6e81610954565b9050919050565b6000604082019050610a8a6000830185610994565b610a976020830184610994565b9392505050565b6000604051905081810181811067ffffffffffffffff82111715610ac557610ac4610ba0565b5b8060405250919050565b600082825260208201905092915050565b6000610aeb82610afe565b9050919050565b60008115159050919050565b600073ffffffffffffffffffffffffffffffffffffffff82169050919050565b6000819050919050565b6000610b3382610b1e565b91507fffffffffffffffffffffffffffffffffffffffffffffffffffffffffffffffff821415610b6657610b65610b71565b5b600182019050919050565b7f4e487b7100000000000000000000000000000000000000000000000000000000600052601160045260246000fd5b7f4e487b7100000000000000000000000000000000000000000000000000000000600052604160045260246000fd5b610bd881610ae0565b8114610be357600080fd5b50565b610bef81610af2565b8114610bfa57600080fd5b50565b610c0681610b1e565b8114610c1157600080fd5b5056fea26469706673582212203d664407d6be2cfd7f9008d6d8ebda4d6c162fa8bd4ee319b3e103e40c83391264736f6c63430008000033",
          "opcodes": "PUSH1 0x80 PUSH1 0x40 MSTORE PUSH1 0x0 PUSH1 0x3 SSTORE CALLVALUE DUP1 ISZERO PUSH2 0x15 JUMPI PUSH1 0x0 DUP1 REVERT JUMPDEST POP PUSH1 0x40 MLOAD PUSH2 0xDE4 CODESIZE SUB DUP1 PUSH2 0xDE4 DUP4 CODECOPY DUP2 DUP2 ADD PUSH1 0x40 MSTORE DUP2 ADD SWAP1 PUSH2 0x37 SWAP2 SWAP1 PUSH2 0x141 JUMP JUMPDEST PUSH2 0x53 PUSH2 0x48 PUSH2 0x60 PUSH1 0x20 SHL PUSH1 0x20 SHR JUMP JUMPDEST PUSH2 0x68 PUSH1 0x20 SHL PUSH1 0x20 SHR JUMP JUMPDEST DUP1 PUSH1 0x4 DUP2 SWAP1 SSTORE POP POP PUSH2 0x18B JUMP JUMPDEST PUSH1 0x0 CALLER SWAP1 POP SWAP1 JUMP JUMPDEST PUSH1 0x0 DUP1 PUSH1 0x0 SWAP1 SLOAD SWAP1 PUSH2 0x100 EXP SWAP1 DIV PUSH20 0xFFFFFFFFFFFFFFFFFFFFFFFFFFFFFFFFFFFFFFFF AND SWAP1 POP DUP2 PUSH1 0x0 DUP1 PUSH2 0x100 EXP DUP2 SLOAD DUP2 PUSH20 0xFFFFFFFFFFFFFFFFFFFFFFFFFFFFFFFFFFFFFFFF MUL NOT AND SWAP1 DUP4 PUSH20 0xFFFFFFFFFFFFFFFFFFFFFFFFFFFFFFFFFFFFFFFF AND MUL OR SWAP1 SSTORE POP DUP2 PUSH20 0xFFFFFFFFFFFFFFFFFFFFFFFFFFFFFFFFFFFFFFFF AND DUP2 PUSH20 0xFFFFFFFFFFFFFFFFFFFFFFFFFFFFFFFFFFFFFFFF AND PUSH32 0x8BE0079C531659141344CD1FD0A4F28419497F9722A3DAAFE3B4186F6B6457E0 PUSH1 0x40 MLOAD PUSH1 0x40 MLOAD DUP1 SWAP2 SUB SWAP1 LOG3 POP POP JUMP JUMPDEST PUSH1 0x0 DUP2 MLOAD SWAP1 POP PUSH2 0x13B DUP2 PUSH2 0x174 JUMP JUMPDEST SWAP3 SWAP2 POP POP JUMP JUMPDEST PUSH1 0x0 PUSH1 0x20 DUP3 DUP5 SUB SLT ISZERO PUSH2 0x153 JUMPI PUSH1 0x0 DUP1 REVERT JUMPDEST PUSH1 0x0 PUSH2 0x161 DUP5 DUP3 DUP6 ADD PUSH2 0x12C JUMP JUMPDEST SWAP2 POP POP SWAP3 SWAP2 POP POP JUMP JUMPDEST PUSH1 0x0 DUP2 SWAP1 POP SWAP2 SWAP1 POP JUMP JUMPDEST PUSH2 0x17D DUP2 PUSH2 0x16A JUMP JUMPDEST DUP2 EQ PUSH2 0x188 JUMPI PUSH1 0x0 DUP1 REVERT JUMPDEST POP JUMP JUMPDEST PUSH2 0xC4A DUP1 PUSH2 0x19A PUSH1 0x0 CODECOPY PUSH1 0x0 RETURN INVALID PUSH1 0x80 PUSH1 0x40 MSTORE CALLVALUE DUP1 ISZERO PUSH2 0x10 JUMPI PUSH1 0x0 DUP1 REVERT JUMPDEST POP PUSH1 0x4 CALLDATASIZE LT PUSH2 0x62 JUMPI PUSH1 0x0 CALLDATALOAD PUSH1 0xE0 SHR DUP1 PUSH4 0x4420E486 EQ PUSH2 0x67 JUMPI DUP1 PUSH4 0x715018A6 EQ PUSH2 0x83 JUMPI DUP1 PUSH4 0x8DA5CB5B EQ PUSH2 0x8D JUMPI DUP1 PUSH4 0xBAF19228 EQ PUSH2 0xAB JUMPI DUP1 PUSH4 0xF2AC8065 EQ PUSH2 0xDD JUMPI DUP1 PUSH4 0xF2FDE38B EQ PUSH2 0xF9 JUMPI JUMPDEST PUSH1 0x0 DUP1 REVERT JUMPDEST PUSH2 0x81 PUSH1 0x4 DUP1 CALLDATASIZE SUB DUP2 ADD SWAP1 PUSH2 0x7C SWAP2 SWAP1 PUSH2 0x7C2 JUMP JUMPDEST PUSH2 0x115 JUMP JUMPDEST STOP JUMPDEST PUSH2 0x8B PUSH2 0x361 JUMP JUMPDEST STOP JUMPDEST PUSH2 0x95 PUSH2 0x3E9 JUMP JUMPDEST PUSH1 0x40 MLOAD PUSH2 0xA2 SWAP2 SWAP1 PUSH2 0x9A3 JUMP JUMPDEST PUSH1 0x40 MLOAD DUP1 SWAP2 SUB SWAP1 RETURN JUMPDEST PUSH2 0xC5 PUSH1 0x4 DUP1 CALLDATASIZE SUB DUP2 ADD SWAP1 PUSH2 0xC0 SWAP2 SWAP1 PUSH2 0x7EB JUMP JUMPDEST PUSH2 0x412 JUMP JUMPDEST PUSH1 0x40 MLOAD PUSH2 0xD4 SWAP4 SWAP3 SWAP2 SWAP1 PUSH2 0x9BE JUMP JUMPDEST PUSH1 0x40 MLOAD DUP1 SWAP2 SUB SWAP1 RETURN JUMPDEST PUSH2 0xF7 PUSH1 0x4 DUP1 CALLDATASIZE SUB DUP2 ADD SWAP1 PUSH2 0xF2 SWAP2 SWAP1 PUSH2 0x814 JUMP JUMPDEST PUSH2 0x479 JUMP JUMPDEST STOP JUMPDEST PUSH2 0x113 PUSH1 0x4 DUP1 CALLDATASIZE SUB DUP2 ADD SWAP1 PUSH2 0x10E SWAP2 SWAP1 PUSH2 0x7C2 JUMP JUMPDEST PUSH2 0x55F JUMP JUMPDEST STOP JUMPDEST PUSH2 0x11D PUSH2 0x657 JUMP JUMPDEST PUSH20 0xFFFFFFFFFFFFFFFFFFFFFFFFFFFFFFFFFFFFFFFF AND PUSH2 0x13B PUSH2 0x3E9 JUMP JUMPDEST PUSH20 0xFFFFFFFFFFFFFFFFFFFFFFFFFFFFFFFFFFFFFFFF AND EQ PUSH2 0x191 JUMPI PUSH1 0x40 MLOAD PUSH32 0x8C379A000000000000000000000000000000000000000000000000000000000 DUP2 MSTORE PUSH1 0x4 ADD PUSH2 0x188 SWAP1 PUSH2 0xA35 JUMP JUMPDEST PUSH1 0x40 MLOAD DUP1 SWAP2 SUB SWAP1 REVERT JUMPDEST PUSH1 0x0 JUMPDEST PUSH1 0x1 DUP1 SLOAD SWAP1 POP DUP2 LT ISZERO PUSH2 0x35D JUMPI PUSH1 0x1 DUP2 DUP2 SLOAD DUP2 LT PUSH2 0x1DB JUMPI PUSH32 0x4E487B7100000000000000000000000000000000000000000000000000000000 PUSH1 0x0 MSTORE PUSH1 0x32 PUSH1 0x4 MSTORE PUSH1 0x24 PUSH1 0x0 REVERT JUMPDEST SWAP1 PUSH1 0x0 MSTORE PUSH1 0x20 PUSH1 0x0 KECCAK256 SWAP1 PUSH1 0x3 MUL ADD PUSH1 0x0 ADD PUSH1 0x0 SWAP1 SLOAD SWAP1 PUSH2 0x100 EXP SWAP1 DIV PUSH20 0xFFFFFFFFFFFFFFFFFFFFFFFFFFFFFFFFFFFFFFFF AND PUSH20 0xFFFFFFFFFFFFFFFFFFFFFFFFFFFFFFFFFFFFFFFF AND DUP3 PUSH20 0xFFFFFFFFFFFFFFFFFFFFFFFFFFFFFFFFFFFFFFFF AND EQ PUSH2 0x34A JUMPI PUSH1 0x1 PUSH1 0x40 MLOAD DUP1 PUSH1 0x60 ADD PUSH1 0x40 MSTORE DUP1 DUP5 PUSH20 0xFFFFFFFFFFFFFFFFFFFFFFFFFFFFFFFFFFFFFFFF AND DUP2 MSTORE PUSH1 0x20 ADD PUSH1 0x0 DUP2 MSTORE PUSH1 0x20 ADD PUSH1 0x1 ISZERO ISZERO DUP2 MSTORE POP SWAP1 DUP1 PUSH1 0x1 DUP2 SLOAD ADD DUP1 DUP3 SSTORE DUP1 SWAP2 POP POP PUSH1 0x1 SWAP1 SUB SWAP1 PUSH1 0x0 MSTORE PUSH1 0x20 PUSH1 0x0 KECCAK256 SWAP1 PUSH1 0x3 MUL ADD PUSH1 0x0 SWAP1 SWAP2 SWAP1 SWAP2 SWAP1 SWAP2 POP PUSH1 0x0 DUP3 ADD MLOAD DUP2 PUSH1 0x0 ADD PUSH1 0x0 PUSH2 0x100 EXP DUP2 SLOAD DUP2 PUSH20 0xFFFFFFFFFFFFFFFFFFFFFFFFFFFFFFFFFFFFFFFF MUL NOT AND SWAP1 DUP4 PUSH20 0xFFFFFFFFFFFFFFFFFFFFFFFFFFFFFFFFFFFFFFFF AND MUL OR SWAP1 SSTORE POP PUSH1 0x20 DUP3 ADD MLOAD DUP2 PUSH1 0x1 ADD SSTORE PUSH1 0x40 DUP3 ADD MLOAD DUP2 PUSH1 0x2 ADD PUSH1 0x0 PUSH2 0x100 EXP DUP2 SLOAD DUP2 PUSH1 0xFF MUL NOT AND SWAP1 DUP4 ISZERO ISZERO MUL OR SWAP1 SSTORE POP POP POP PUSH32 0x105F6C094A099DDEA728DB989DEF4F78DE0E6D426FE3D417E1C3CE4441F5A38 DUP3 PUSH1 0x40 MLOAD PUSH2 0x341 SWAP2 SWAP1 PUSH2 0x9A3 JUMP JUMPDEST PUSH1 0x40 MLOAD DUP1 SWAP2 SUB SWAP1 LOG1 JUMPDEST DUP1 DUP1 PUSH2 0x355 SWAP1 PUSH2 0xB28 JUMP JUMPDEST SWAP2 POP POP PUSH2 0x194 JUMP JUMPDEST POP POP JUMP JUMPDEST PUSH2 0x369 PUSH2 0x657 JUMP JUMPDEST PUSH20 0xFFFFFFFFFFFFFFFFFFFFFFFFFFFFFFFFFFFFFFFF AND PUSH2 0x387 PUSH2 0x3E9 JUMP JUMPDEST PUSH20 0xFFFFFFFFFFFFFFFFFFFFFFFFFFFFFFFFFFFFFFFF AND EQ PUSH2 0x3DD JUMPI PUSH1 0x40 MLOAD PUSH32 0x8C379A000000000000000000000000000000000000000000000000000000000 DUP2 MSTORE PUSH1 0x4 ADD PUSH2 0x3D4 SWAP1 PUSH2 0xA35 JUMP JUMPDEST PUSH1 0x40 MLOAD DUP1 SWAP2 SUB SWAP1 REVERT JUMPDEST PUSH2 0x3E7 PUSH1 0x0 PUSH2 0x65F JUMP JUMPDEST JUMP JUMPDEST PUSH1 0x0 DUP1 PUSH1 0x0 SWAP1 SLOAD SWAP1 PUSH2 0x100 EXP SWAP1 DIV PUSH20 0xFFFFFFFFFFFFFFFFFFFFFFFFFFFFFFFFFFFFFFFF AND SWAP1 POP SWAP1 JUMP JUMPDEST PUSH1 0x1 DUP2 DUP2 SLOAD DUP2 LT PUSH2 0x422 JUMPI PUSH1 0x0 DUP1 REVERT JUMPDEST SWAP1 PUSH1 0x0 MSTORE PUSH1 0x20 PUSH1 0x0 KECCAK256 SWAP1 PUSH1 0x3 MUL ADD PUSH1 0x0 SWAP2 POP SWAP1 POP DUP1 PUSH1 0x0 ADD PUSH1 0x0 SWAP1 SLOAD SWAP1 PUSH2 0x100 EXP SWAP1 DIV PUSH20 0xFFFFFFFFFFFFFFFFFFFFFFFFFFFFFFFFFFFFFFFF AND SWAP1 DUP1 PUSH1 0x1 ADD SLOAD SWAP1 DUP1 PUSH1 0x2 ADD PUSH1 0x0 SWAP1 SLOAD SWAP1 PUSH2 0x100 EXP SWAP1 DIV PUSH1 0xFF AND SWAP1 POP DUP4 JUMP JUMPDEST PUSH1 0x4 SLOAD DUP3 GT PUSH2 0x4BD JUMPI PUSH1 0x40 MLOAD PUSH32 0x8C379A000000000000000000000000000000000000000000000000000000000 DUP2 MSTORE PUSH1 0x4 ADD PUSH2 0x4B4 SWAP1 PUSH2 0xA15 JUMP JUMPDEST PUSH1 0x40 MLOAD DUP1 SWAP2 SUB SWAP1 REVERT JUMPDEST PUSH1 0x1 ISZERO ISZERO DUP2 PUSH1 0x40 ADD MLOAD ISZERO ISZERO EQ PUSH2 0x508 JUMPI PUSH1 0x40 MLOAD PUSH32 0x8C379A000000000000000000000000000000000000000000000000000000000 DUP2 MSTORE PUSH1 0x4 ADD PUSH2 0x4FF SWAP1 PUSH2 0xA55 JUMP JUMPDEST PUSH1 0x40 MLOAD DUP1 SWAP2 SUB SWAP1 REVERT JUMPDEST PUSH1 0x3 PUSH1 0x0 DUP2 SLOAD DUP1 SWAP3 SWAP2 SWAP1 PUSH2 0x51B SWAP1 PUSH2 0xB28 JUMP JUMPDEST SWAP2 SWAP1 POP SSTORE POP PUSH32 0x9565D7C8E506CDB71FD2C68A5D00AD8F7A8AFC7391506DC141B0CB0397DE6964 PUSH1 0x3 SLOAD DUP4 PUSH1 0x40 MLOAD PUSH2 0x553 SWAP3 SWAP2 SWAP1 PUSH2 0xA75 JUMP JUMPDEST PUSH1 0x40 MLOAD DUP1 SWAP2 SUB SWAP1 LOG1 POP POP JUMP JUMPDEST PUSH2 0x567 PUSH2 0x657 JUMP JUMPDEST PUSH20 0xFFFFFFFFFFFFFFFFFFFFFFFFFFFFFFFFFFFFFFFF AND PUSH2 0x585 PUSH2 0x3E9 JUMP JUMPDEST PUSH20 0xFFFFFFFFFFFFFFFFFFFFFFFFFFFFFFFFFFFFFFFF AND EQ PUSH2 0x5DB JUMPI PUSH1 0x40 MLOAD PUSH32 0x8C379A000000000000000000000000000000000000000000000000000000000 DUP2 MSTORE PUSH1 0x4 ADD PUSH2 0x5D2 SWAP1 PUSH2 0xA35 JUMP JUMPDEST PUSH1 0x40 MLOAD DUP1 SWAP2 SUB SWAP1 REVERT JUMPDEST PUSH1 0x0 PUSH20 0xFFFFFFFFFFFFFFFFFFFFFFFFFFFFFFFFFFFFFFFF AND DUP2 PUSH20 0xFFFFFFFFFFFFFFFFFFFFFFFFFFFFFFFFFFFFFFFF AND EQ ISZERO PUSH2 0x64B JUMPI PUSH1 0x40 MLOAD PUSH32 0x8C379A000000000000000000000000000000000000000000000000000000000 DUP2 MSTORE PUSH1 0x4 ADD PUSH2 0x642 SWAP1 PUSH2 0x9F5 JUMP JUMPDEST PUSH1 0x40 MLOAD DUP1 SWAP2 SUB SWAP1 REVERT JUMPDEST PUSH2 0x654 DUP2 PUSH2 0x65F JUMP JUMPDEST POP JUMP JUMPDEST PUSH1 0x0 CALLER SWAP1 POP SWAP1 JUMP JUMPDEST PUSH1 0x0 DUP1 PUSH1 0x0 SWAP1 SLOAD SWAP1 PUSH2 0x100 EXP SWAP1 DIV PUSH20 0xFFFFFFFFFFFFFFFFFFFFFFFFFFFFFFFFFFFFFFFF AND SWAP1 POP DUP2 PUSH1 0x0 DUP1 PUSH2 0x100 EXP DUP2 SLOAD DUP2 PUSH20 0xFFFFFFFFFFFFFFFFFFFFFFFFFFFFFFFFFFFFFFFF MUL NOT AND SWAP1 DUP4 PUSH20 0xFFFFFFFFFFFFFFFFFFFFFFFFFFFFFFFFFFFFFFFF AND MUL OR SWAP1 SSTORE POP DUP2 PUSH20 0xFFFFFFFFFFFFFFFFFFFFFFFFFFFFFFFFFFFFFFFF AND DUP2 PUSH20 0xFFFFFFFFFFFFFFFFFFFFFFFFFFFFFFFFFFFFFFFF AND PUSH32 0x8BE0079C531659141344CD1FD0A4F28419497F9722A3DAAFE3B4186F6B6457E0 PUSH1 0x40 MLOAD PUSH1 0x40 MLOAD DUP1 SWAP2 SUB SWAP1 LOG3 POP POP JUMP JUMPDEST PUSH1 0x0 DUP2 CALLDATALOAD SWAP1 POP PUSH2 0x732 DUP2 PUSH2 0xBCF JUMP JUMPDEST SWAP3 SWAP2 POP POP JUMP JUMPDEST PUSH1 0x0 DUP2 CALLDATALOAD SWAP1 POP PUSH2 0x747 DUP2 PUSH2 0xBE6 JUMP JUMPDEST SWAP3 SWAP2 POP POP JUMP JUMPDEST PUSH1 0x0 PUSH1 0x60 DUP3 DUP5 SUB SLT ISZERO PUSH2 0x75F JUMPI PUSH1 0x0 DUP1 REVERT JUMPDEST PUSH2 0x769 PUSH1 0x60 PUSH2 0xA9E JUMP JUMPDEST SWAP1 POP PUSH1 0x0 PUSH2 0x779 DUP5 DUP3 DUP6 ADD PUSH2 0x723 JUMP JUMPDEST PUSH1 0x0 DUP4 ADD MSTORE POP PUSH1 0x20 PUSH2 0x78D DUP5 DUP3 DUP6 ADD PUSH2 0x7AD JUMP JUMPDEST PUSH1 0x20 DUP4 ADD MSTORE POP PUSH1 0x40 PUSH2 0x7A1 DUP5 DUP3 DUP6 ADD PUSH2 0x738 JUMP JUMPDEST PUSH1 0x40 DUP4 ADD MSTORE POP SWAP3 SWAP2 POP POP JUMP JUMPDEST PUSH1 0x0 DUP2 CALLDATALOAD SWAP1 POP PUSH2 0x7BC DUP2 PUSH2 0xBFD JUMP JUMPDEST SWAP3 SWAP2 POP POP JUMP JUMPDEST PUSH1 0x0 PUSH1 0x20 DUP3 DUP5 SUB SLT ISZERO PUSH2 0x7D4 JUMPI PUSH1 0x0 DUP1 REVERT JUMPDEST PUSH1 0x0 PUSH2 0x7E2 DUP5 DUP3 DUP6 ADD PUSH2 0x723 JUMP JUMPDEST SWAP2 POP POP SWAP3 SWAP2 POP POP JUMP JUMPDEST PUSH1 0x0 PUSH1 0x20 DUP3 DUP5 SUB SLT ISZERO PUSH2 0x7FD JUMPI PUSH1 0x0 DUP1 REVERT JUMPDEST PUSH1 0x0 PUSH2 0x80B DUP5 DUP3 DUP6 ADD PUSH2 0x7AD JUMP JUMPDEST SWAP2 POP POP SWAP3 SWAP2 POP POP JUMP JUMPDEST PUSH1 0x0 DUP1 PUSH1 0x80 DUP4 DUP6 SUB SLT ISZERO PUSH2 0x827 JUMPI PUSH1 0x0 DUP1 REVERT JUMPDEST PUSH1 0x0 PUSH2 0x835 DUP6 DUP3 DUP7 ADD PUSH2 0x7AD JUMP JUMPDEST SWAP3 POP POP PUSH1 0x20 PUSH2 0x846 DUP6 DUP3 DUP7 ADD PUSH2 0x74D JUMP JUMPDEST SWAP2 POP POP SWAP3 POP SWAP3 SWAP1 POP JUMP JUMPDEST PUSH2 0x859 DUP2 PUSH2 0xAE0 JUMP JUMPDEST DUP3 MSTORE POP POP JUMP JUMPDEST PUSH2 0x868 DUP2 PUSH2 0xAF2 JUMP JUMPDEST DUP3 MSTORE POP POP JUMP JUMPDEST PUSH1 0x0 PUSH2 0x87B PUSH1 0x26 DUP4 PUSH2 0xACF JUMP JUMPDEST SWAP2 POP PUSH32 0x4F776E61626C653A206E6577206F776E657220697320746865207A65726F2061 PUSH1 0x0 DUP4 ADD MSTORE PUSH32 0x6464726573730000000000000000000000000000000000000000000000000000 PUSH1 0x20 DUP4 ADD MSTORE PUSH1 0x40 DUP3 ADD SWAP1 POP SWAP2 SWAP1 POP JUMP JUMPDEST PUSH1 0x0 PUSH2 0x8E1 PUSH1 0x1C DUP4 PUSH2 0xACF JUMP JUMPDEST SWAP2 POP PUSH32 0x706C65617365206269642061626F76652063757272656E742062696400000000 PUSH1 0x0 DUP4 ADD MSTORE PUSH1 0x20 DUP3 ADD SWAP1 POP SWAP2 SWAP1 POP JUMP JUMPDEST PUSH1 0x0 PUSH2 0x921 PUSH1 0x20 DUP4 PUSH2 0xACF JUMP JUMPDEST SWAP2 POP PUSH32 0x4F776E61626C653A2063616C6C6572206973206E6F7420746865206F776E6572 PUSH1 0x0 DUP4 ADD MSTORE PUSH1 0x20 DUP3 ADD SWAP1 POP SWAP2 SWAP1 POP JUMP JUMPDEST PUSH1 0x0 PUSH2 0x961 PUSH1 0x1C DUP4 PUSH2 0xACF JUMP JUMPDEST SWAP2 POP PUSH32 0x706C6561736520726567697374657220796F7572206164647265737300000000 PUSH1 0x0 DUP4 ADD MSTORE PUSH1 0x20 DUP3 ADD SWAP1 POP SWAP2 SWAP1 POP JUMP JUMPDEST PUSH2 0x99D DUP2 PUSH2 0xB1E JUMP JUMPDEST DUP3 MSTORE POP POP JUMP JUMPDEST PUSH1 0x0 PUSH1 0x20 DUP3 ADD SWAP1 POP PUSH2 0x9B8 PUSH1 0x0 DUP4 ADD DUP5 PUSH2 0x850 JUMP JUMPDEST SWAP3 SWAP2 POP POP JUMP JUMPDEST PUSH1 0x0 PUSH1 0x60 DUP3 ADD SWAP1 POP PUSH2 0x9D3 PUSH1 0x0 DUP4 ADD DUP7 PUSH2 0x850 JUMP JUMPDEST PUSH2 0x9E0 PUSH1 0x20 DUP4 ADD DUP6 PUSH2 0x994 JUMP JUMPDEST PUSH2 0x9ED PUSH1 0x40 DUP4 ADD DUP5 PUSH2 0x85F JUMP JUMPDEST SWAP5 SWAP4 POP POP POP POP JUMP JUMPDEST PUSH1 0x0 PUSH1 0x20 DUP3 ADD SWAP1 POP DUP2 DUP2 SUB PUSH1 0x0 DUP4 ADD MSTORE PUSH2 0xA0E DUP2 PUSH2 0x86E JUMP JUMPDEST SWAP1 POP SWAP2 SWAP1 POP JUMP JUMPDEST PUSH1 0x0 PUSH1 0x20 DUP3 ADD SWAP1 POP DUP2 DUP2 SUB PUSH1 0x0 DUP4 ADD MSTORE PUSH2 0xA2E DUP2 PUSH2 0x8D4 JUMP JUMPDEST SWAP1 POP SWAP2 SWAP1 POP JUMP JUMPDEST PUSH1 0x0 PUSH1 0x20 DUP3 ADD SWAP1 POP DUP2 DUP2 SUB PUSH1 0x0 DUP4 ADD MSTORE PUSH2 0xA4E DUP2 PUSH2 0x914 JUMP JUMPDEST SWAP1 POP SWAP2 SWAP1 POP JUMP JUMPDEST PUSH1 0x0 PUSH1 0x20 DUP3 ADD SWAP1 POP DUP2 DUP2 SUB PUSH1 0x0 DUP4 ADD MSTORE PUSH2 0xA6E DUP2 PUSH2 0x954 JUMP JUMPDEST SWAP1 POP SWAP2 SWAP1 POP JUMP JUMPDEST PUSH1 0x0 PUSH1 0x40 DUP3 ADD SWAP1 POP PUSH2 0xA8A PUSH1 0x0 DUP4 ADD DUP6 PUSH2 0x994 JUMP JUMPDEST PUSH2 0xA97 PUSH1 0x20 DUP4 ADD DUP5 PUSH2 0x994 JUMP JUMPDEST SWAP4 SWAP3 POP POP POP JUMP JUMPDEST PUSH1 0x0 PUSH1 0x40 MLOAD SWAP1 POP DUP2 DUP2 ADD DUP2 DUP2 LT PUSH8 0xFFFFFFFFFFFFFFFF DUP3 GT OR ISZERO PUSH2 0xAC5 JUMPI PUSH2 0xAC4 PUSH2 0xBA0 JUMP JUMPDEST JUMPDEST DUP1 PUSH1 0x40 MSTORE POP SWAP2 SWAP1 POP JUMP JUMPDEST PUSH1 0x0 DUP3 DUP3 MSTORE PUSH1 0x20 DUP3 ADD SWAP1 POP SWAP3 SWAP2 POP POP JUMP JUMPDEST PUSH1 0x0 PUSH2 0xAEB DUP3 PUSH2 0xAFE JUMP JUMPDEST SWAP1 POP SWAP2 SWAP1 POP JUMP JUMPDEST PUSH1 0x0 DUP2 ISZERO ISZERO SWAP1 POP SWAP2 SWAP1 POP JUMP JUMPDEST PUSH1 0x0 PUSH20 0xFFFFFFFFFFFFFFFFFFFFFFFFFFFFFFFFFFFFFFFF DUP3 AND SWAP1 POP SWAP2 SWAP1 POP JUMP JUMPDEST PUSH1 0x0 DUP2 SWAP1 POP SWAP2 SWAP1 POP JUMP JUMPDEST PUSH1 0x0 PUSH2 0xB33 DUP3 PUSH2 0xB1E JUMP JUMPDEST SWAP2 POP PUSH32 0xFFFFFFFFFFFFFFFFFFFFFFFFFFFFFFFFFFFFFFFFFFFFFFFFFFFFFFFFFFFFFFFF DUP3 EQ ISZERO PUSH2 0xB66 JUMPI PUSH2 0xB65 PUSH2 0xB71 JUMP JUMPDEST JUMPDEST PUSH1 0x1 DUP3 ADD SWAP1 POP SWAP2 SWAP1 POP JUMP JUMPDEST PUSH32 0x4E487B7100000000000000000000000000000000000000000000000000000000 PUSH1 0x0 MSTORE PUSH1 0x11 PUSH1 0x4 MSTORE PUSH1 0x24 PUSH1 0x0 REVERT JUMPDEST PUSH32 0x4E487B7100000000000000000000000000000000000000000000000000000000 PUSH1 0x0 MSTORE PUSH1 0x41 PUSH1 0x4 MSTORE PUSH1 0x24 PUSH1 0x0 REVERT JUMPDEST PUSH2 0xBD8 DUP2 PUSH2 0xAE0 JUMP JUMPDEST DUP2 EQ PUSH2 0xBE3 JUMPI PUSH1 0x0 DUP1 REVERT JUMPDEST POP JUMP JUMPDEST PUSH2 0xBEF DUP2 PUSH2 0xAF2 JUMP JUMPDEST DUP2 EQ PUSH2 0xBFA JUMPI PUSH1 0x0 DUP1 REVERT JUMPDEST POP JUMP JUMPDEST PUSH2 0xC06 DUP2 PUSH2 0xB1E JUMP JUMPDEST DUP2 EQ PUSH2 0xC11 JUMPI PUSH1 0x0 DUP1 REVERT JUMPDEST POP JUMP INVALID LOG2 PUSH5 0x6970667358 0x22 SLT KECCAK256 RETURNDATASIZE PUSH7 0x4407D6BE2CFD7F SWAP1 ADDMOD 0xD6 0xD8 0xEB 0xDA 0x4D PUSH13 0x162FA8BD4EE319B3E103E40C83 CODECOPY SLT PUSH5 0x736F6C6343 STOP ADDMOD STOP STOP CALLER "
        },
        "methodIdentifiers": {
          "advertisers(uint256)": "baf19228",
          "owner()": "8da5cb5b",
          "placeBid(uint256,(address,uint256,bool))": "f2ac8065",
          "register(address)": "4420e486",
          "renounceOwnership()": "715018a6",
          "transferOwnership(address)": "f2fde38b"
        }
      }
    }
  }
}