{
  "_format": "hh-sol-artifact-1",
  "contractName": "Bid",
  "sourceName": "contracts/Bid.sol",
  "abi": [
    {
      "inputs": [
        {
          "internalType": "uint256",
          "name": "_curBid",
          "type": "uint256"
        },
        {
          "internalType": "contract Swap",
          "name": "_swap",
          "type": "address"
        }
      ],
      "stateMutability": "nonpayable",
      "type": "constructor"
    },
    {
      "anonymous": false,
      "inputs": [
        {
          "indexed": true,
          "internalType": "address",
          "name": "previousOwner",
          "type": "address"
        },
        {
          "indexed": true,
          "internalType": "address",
          "name": "newOwner",
          "type": "address"
        }
      ],
      "name": "OwnershipTransferred",
      "type": "event"
    },
    {
      "anonymous": false,
      "inputs": [
        {
          "indexed": false,
          "internalType": "address",
          "name": "from",
          "type": "address"
        },
        {
          "indexed": false,
          "internalType": "address",
          "name": "to",
          "type": "address"
        },
        {
          "indexed": false,
          "internalType": "uint256",
          "name": "value",
          "type": "uint256"
        }
      ],
      "name": "Transfer",
      "type": "event"
    },
    {
      "anonymous": false,
      "inputs": [
        {
          "indexed": false,
          "internalType": "uint256",
          "name": "adId",
          "type": "uint256"
        },
        {
          "indexed": false,
          "internalType": "uint256",
          "name": "value",
          "type": "uint256"
        }
      ],
      "name": "newAd",
      "type": "event"
    },
    {
      "anonymous": false,
      "inputs": [
        {
          "indexed": false,
          "internalType": "address",
          "name": "addr",
          "type": "address"
        }
      ],
      "name": "newAdvertiser",
      "type": "event"
    },
    {
      "inputs": [],
      "name": "bidCount",
      "outputs": [
        {
          "internalType": "uint256",
          "name": "",
          "type": "uint256"
        }
      ],
      "stateMutability": "view",
      "type": "function"
    },
    {
      "inputs": [],
      "name": "currentBid",
      "outputs": [
        {
          "internalType": "uint256",
          "name": "",
          "type": "uint256"
        }
      ],
      "stateMutability": "view",
      "type": "function"
    },
    {
      "inputs": [],
      "name": "getSwap",
      "outputs": [
        {
          "internalType": "address",
          "name": "",
          "type": "address"
        }
      ],
      "stateMutability": "view",
      "type": "function"
    },
    {
      "inputs": [],
      "name": "getToken",
      "outputs": [
        {
          "internalType": "address",
          "name": "",
          "type": "address"
        }
      ],
      "stateMutability": "view",
      "type": "function"
    },
    {
      "inputs": [],
      "name": "owner",
      "outputs": [
        {
          "internalType": "address",
          "name": "",
          "type": "address"
        }
      ],
      "stateMutability": "view",
      "type": "function"
    },
    {
      "inputs": [
        {
          "internalType": "uint256",
          "name": "_value",
          "type": "uint256"
        }
      ],
      "name": "placeBid",
      "outputs": [],
      "stateMutability": "nonpayable",
      "type": "function"
    },
    {
      "inputs": [
        {
          "internalType": "address",
          "name": "_address",
          "type": "address"
        }
      ],
      "name": "register",
      "outputs": [],
      "stateMutability": "nonpayable",
      "type": "function"
    },
    {
      "inputs": [],
      "name": "renounceOwnership",
      "outputs": [],
      "stateMutability": "nonpayable",
      "type": "function"
    },
    {
      "inputs": [],
      "name": "swap",
      "outputs": [
        {
          "internalType": "contract Swap",
          "name": "",
          "type": "address"
        }
      ],
      "stateMutability": "view",
      "type": "function"
    },
    {
      "inputs": [],
      "name": "token",
      "outputs": [
        {
          "internalType": "contract AEXToken",
          "name": "",
          "type": "address"
        }
      ],
      "stateMutability": "view",
      "type": "function"
    },
    {
      "inputs": [
        {
          "internalType": "address",
          "name": "newOwner",
          "type": "address"
        }
      ],
      "name": "transferOwnership",
      "outputs": [],
      "stateMutability": "nonpayable",
      "type": "function"
    }
  ],
  "bytecode": "0x608060405260006004553480156200001657600080fd5b50604051620015c7380380620015c783398181016040528101906200003c9190620002cd565b6200005c620000506200019060201b60201c565b6200019860201b60201c565b8160058190555080600160006101000a81548173ffffffffffffffffffffffffffffffffffffffff021916908373ffffffffffffffffffffffffffffffffffffffff160217905550600160009054906101000a900473ffffffffffffffffffffffffffffffffffffffff1673ffffffffffffffffffffffffffffffffffffffff1663fc0c546a6040518163ffffffff1660e01b815260040160206040518083038186803b1580156200010d57600080fd5b505afa15801562000122573d6000803e3d6000fd5b505050506040513d601f19601f82011682018060405250810190620001489190620002a1565b600260006101000a81548173ffffffffffffffffffffffffffffffffffffffff021916908373ffffffffffffffffffffffffffffffffffffffff1602179055505050620003c2565b600033905090565b60008060009054906101000a900473ffffffffffffffffffffffffffffffffffffffff169050816000806101000a81548173ffffffffffffffffffffffffffffffffffffffff021916908373ffffffffffffffffffffffffffffffffffffffff1602179055508173ffffffffffffffffffffffffffffffffffffffff168173ffffffffffffffffffffffffffffffffffffffff167f8be0079c531659141344cd1fd0a4f28419497f9722a3daafe3b4186f6b6457e060405160405180910390a35050565b6000815190506200026d8162000374565b92915050565b60008151905062000284816200038e565b92915050565b6000815190506200029b81620003a8565b92915050565b600060208284031215620002b457600080fd5b6000620002c4848285016200025c565b91505092915050565b60008060408385031215620002e157600080fd5b6000620002f1858286016200028a565b9250506020620003048582860162000273565b9150509250929050565b60006200031b826200034a565b9050919050565b60006200032f826200030e565b9050919050565b600062000343826200030e565b9050919050565b600073ffffffffffffffffffffffffffffffffffffffff82169050919050565b6000819050919050565b6200037f8162000322565b81146200038b57600080fd5b50565b620003998162000336565b8114620003a557600080fd5b50565b620003b3816200036a565b8114620003bf57600080fd5b50565b6111f580620003d26000396000f3fe608060405234801561001057600080fd5b50600436106100a95760003560e01c80638da5cb5b116100715780638da5cb5b1461012e5780639979ef451461014c578063b40a562714610168578063def1810114610186578063f2fde38b146101a4578063fc0c546a146101c0576100a9565b806321df0da7146100ae5780634420e486146100cc57806349b010ab146100e8578063715018a6146101065780638119c06514610110575b600080fd5b6100b66101de565b6040516100c39190610e95565b60405180910390f35b6100e660048036038101906100e19190610b69565b610208565b005b6100f061050c565b6040516100fd9190610e95565b60405180910390f35b61010e610536565b005b6101186105be565b6040516101259190610f02565b60405180910390f35b6101366105e4565b6040516101439190610e95565b60405180910390f35b61016660048036038101906101619190610bbb565b61060d565b005b61017061091b565b60405161017d919061101d565b60405180910390f35b61018e610921565b60405161019b919061101d565b60405180910390f35b6101be60048036038101906101b99190610b69565b61092b565b005b6101c8610a23565b6040516101d59190610ee7565b60405180910390f35b6000600260009054906101000a900473ffffffffffffffffffffffffffffffffffffffff16905090565b610210610a49565b73ffffffffffffffffffffffffffffffffffffffff1661022e6105e4565b73ffffffffffffffffffffffffffffffffffffffff1614610284576040517f08c379a000000000000000000000000000000000000000000000000000000000815260040161027b90610f9d565b60405180910390fd5b6000600260009054906101000a900473ffffffffffffffffffffffffffffffffffffffff1673ffffffffffffffffffffffffffffffffffffffff166370a08231836040518263ffffffff1660e01b81526004016102e19190610e95565b60206040518083038186803b1580156102f957600080fd5b505afa15801561030d573d6000803e3d6000fd5b505050506040513d601f19601f820116820180604052508101906103319190610be4565b11610371576040517f08c379a000000000000000000000000000000000000000000000000000000000815260040161036890610ffd565b60405180910390fd5b6103796105e4565b73ffffffffffffffffffffffffffffffffffffffff168173ffffffffffffffffffffffffffffffffffffffff1614156103e7576040517f08c379a00000000000000000000000000000000000000000000000000000000081526004016103de90610f3d565b60405180910390fd5b60001515600360008373ffffffffffffffffffffffffffffffffffffffff1673ffffffffffffffffffffffffffffffffffffffff16815260200190815260200160002060009054906101000a900460ff1615151461047a576040517f08c379a000000000000000000000000000000000000000000000000000000000815260040161047190610f5d565b60405180910390fd5b6001600360008373ffffffffffffffffffffffffffffffffffffffff1673ffffffffffffffffffffffffffffffffffffffff16815260200190815260200160002060006101000a81548160ff0219169083151502179055507f0105f6c094a099ddea728db989def4f78de0e6d426fe3d417e1c3ce4441f5a38816040516105019190610e95565b60405180910390a150565b6000600160009054906101000a900473ffffffffffffffffffffffffffffffffffffffff16905090565b61053e610a49565b73ffffffffffffffffffffffffffffffffffffffff1661055c6105e4565b73ffffffffffffffffffffffffffffffffffffffff16146105b2576040517f08c379a00000000000000000000000000000000000000000000000000000000081526004016105a990610f9d565b60405180910390fd5b6105bc6000610a51565b565b600160009054906101000a900473ffffffffffffffffffffffffffffffffffffffff1681565b60008060009054906101000a900473ffffffffffffffffffffffffffffffffffffffff16905090565b60011515600360003373ffffffffffffffffffffffffffffffffffffffff1673ffffffffffffffffffffffffffffffffffffffff16815260200190815260200160002060009054906101000a900460ff161515146106a0576040517f08c379a000000000000000000000000000000000000000000000000000000000815260040161069790610fdd565b60405180910390fd5b80600260009054906101000a900473ffffffffffffffffffffffffffffffffffffffff1673ffffffffffffffffffffffffffffffffffffffff166370a08231336040518263ffffffff1660e01b81526004016106fc9190610e95565b60206040518083038186803b15801561071457600080fd5b505afa158015610728573d6000803e3d6000fd5b505050506040513d601f19601f8201168201806040525081019061074c9190610be4565b101561078d576040517f08c379a000000000000000000000000000000000000000000000000000000000815260040161078490610fbd565b60405180910390fd5b60055481116107d1576040517f08c379a00000000000000000000000000000000000000000000000000000000081526004016107c890610f7d565b60405180910390fd5b600260009054906101000a900473ffffffffffffffffffffffffffffffffffffffff1673ffffffffffffffffffffffffffffffffffffffff166323b872dd3330846040518463ffffffff1660e01b815260040161083093929190610eb0565b602060405180830381600087803b15801561084a57600080fd5b505af115801561085e573d6000803e3d6000fd5b505050506040513d601f19601f820116820180604052508101906108829190610b92565b507fddf252ad1be2c89b69c2b068fc378daa952ba7f163c4a11628f55a4df523b3ef3330836040516108b693929190610eb0565b60405180910390a1600460008154809291906108d190611102565b9190505550806005819055507f9565d7c8e506cdb71fd2c68a5d00ad8f7a8afc7391506dc141b0cb0397de696460045482604051610910929190611038565b60405180910390a150565b60045481565b6000600554905090565b610933610a49565b73ffffffffffffffffffffffffffffffffffffffff166109516105e4565b73ffffffffffffffffffffffffffffffffffffffff16146109a7576040517f08c379a000000000000000000000000000000000000000000000000000000000815260040161099e90610f9d565b60405180910390fd5b600073ffffffffffffffffffffffffffffffffffffffff168173ffffffffffffffffffffffffffffffffffffffff161415610a17576040517f08c379a0000000000000000000000000000000000000000000000000000000008152600401610a0e90610f1d565b60405180910390fd5b610a2081610a51565b50565b600260009054906101000a900473ffffffffffffffffffffffffffffffffffffffff1681565b600033905090565b60008060009054906101000a900473ffffffffffffffffffffffffffffffffffffffff169050816000806101000a81548173ffffffffffffffffffffffffffffffffffffffff021916908373ffffffffffffffffffffffffffffffffffffffff1602179055508173ffffffffffffffffffffffffffffffffffffffff168173ffffffffffffffffffffffffffffffffffffffff167f8be0079c531659141344cd1fd0a4f28419497f9722a3daafe3b4186f6b6457e060405160405180910390a35050565b600081359050610b248161117a565b92915050565b600081519050610b3981611191565b92915050565b600081359050610b4e816111a8565b92915050565b600081519050610b63816111a8565b92915050565b600060208284031215610b7b57600080fd5b6000610b8984828501610b15565b91505092915050565b600060208284031215610ba457600080fd5b6000610bb284828501610b2a565b91505092915050565b600060208284031215610bcd57600080fd5b6000610bdb84828501610b3f565b91505092915050565b600060208284031215610bf657600080fd5b6000610c0484828501610b54565b91505092915050565b610c1681611072565b82525050565b610c25816110ba565b82525050565b610c34816110de565b82525050565b6000610c47602683611061565b91507f4f776e61626c653a206e6577206f776e657220697320746865207a65726f206160008301527f64647265737300000000000000000000000000000000000000000000000000006020830152604082019050919050565b6000610cad602a83611061565b91507f546865206f776e6572206f66207468697320636f6e74726163742063616e6e6f60008301527f74207265676973746572000000000000000000000000000000000000000000006020830152604082019050919050565b6000610d13601d83611061565b91507f6164647265737320697320616c726561647920726567697374657265640000006000830152602082019050919050565b6000610d53601c83611061565b91507f706c65617365206269642061626f76652063757272656e7420626964000000006000830152602082019050919050565b6000610d93602083611061565b91507f4f776e61626c653a2063616c6c6572206973206e6f7420746865206f776e65726000830152602082019050919050565b6000610dd3601d83611061565b91507f796f7520646f206e6f74206861766520656e6f75676820746f6b656e730000006000830152602082019050919050565b6000610e13601c83611061565b91507f706c6561736520726567697374657220796f75722061646472657373000000006000830152602082019050919050565b6000610e53601b83611061565b91507f706c65617365206275792041455820746f6b656e7320666972737400000000006000830152602082019050919050565b610e8f816110b0565b82525050565b6000602082019050610eaa6000830184610c0d565b92915050565b6000606082019050610ec56000830186610c0d565b610ed26020830185610c0d565b610edf6040830184610e86565b949350505050565b6000602082019050610efc6000830184610c1c565b92915050565b6000602082019050610f176000830184610c2b565b92915050565b60006020820190508181036000830152610f3681610c3a565b9050919050565b60006020820190508181036000830152610f5681610ca0565b9050919050565b60006020820190508181036000830152610f7681610d06565b9050919050565b60006020820190508181036000830152610f9681610d46565b9050919050565b60006020820190508181036000830152610fb681610d86565b9050919050565b60006020820190508181036000830152610fd681610dc6565b9050919050565b60006020820190508181036000830152610ff681610e06565b9050919050565b6000602082019050818103600083015261101681610e46565b9050919050565b60006020820190506110326000830184610e86565b92915050565b600060408201905061104d6000830185610e86565b61105a6020830184610e86565b9392505050565b600082825260208201905092915050565b600061107d82611090565b9050919050565b60008115159050919050565b600073ffffffffffffffffffffffffffffffffffffffff82169050919050565b6000819050919050565b60006110c5826110cc565b9050919050565b60006110d782611090565b9050919050565b60006110e9826110f0565b9050919050565b60006110fb82611090565b9050919050565b600061110d826110b0565b91507fffffffffffffffffffffffffffffffffffffffffffffffffffffffffffffffff8214156111405761113f61114b565b5b600182019050919050565b7f4e487b7100000000000000000000000000000000000000000000000000000000600052601160045260246000fd5b61118381611072565b811461118e57600080fd5b50565b61119a81611084565b81146111a557600080fd5b50565b6111b1816110b0565b81146111bc57600080fd5b5056fea2646970667358221220330f23a1122ebf411e7fd409a5efcf78e52c9e09fd1e24e2213c2388850c781064736f6c63430008000033",
  "linkReferences": {},
  "deployedLinkReferences": {}
}