{
  "_format": "hh-sol-artifact-1",
  "contractName": "Bid",
  "sourceName": "contracts/Bid.sol",
  "abi": [
    {
      "inputs": [
        {
          "internalType": "uint256",
          "name": "_curBid",
          "type": "uint256"
        },
        {
          "internalType": "contract Swap",
          "name": "_swap",
          "type": "address"
        }
      ],
      "stateMutability": "nonpayable",
      "type": "constructor"
    },
    {
      "anonymous": false,
      "inputs": [
        {
          "indexed": true,
          "internalType": "address",
          "name": "previousOwner",
          "type": "address"
        },
        {
          "indexed": true,
          "internalType": "address",
          "name": "newOwner",
          "type": "address"
        }
      ],
      "name": "OwnershipTransferred",
      "type": "event"
    },
    {
      "anonymous": false,
      "inputs": [
        {
          "indexed": false,
          "internalType": "address",
          "name": "from",
          "type": "address"
        },
        {
          "indexed": false,
          "internalType": "address",
          "name": "to",
          "type": "address"
        },
        {
          "indexed": false,
          "internalType": "uint256",
          "name": "value",
          "type": "uint256"
        }
      ],
      "name": "Transfer",
      "type": "event"
    },
    {
      "anonymous": false,
      "inputs": [
        {
          "indexed": false,
          "internalType": "uint256",
          "name": "adId",
          "type": "uint256"
        },
        {
          "indexed": false,
          "internalType": "uint256",
          "name": "value",
          "type": "uint256"
        }
      ],
      "name": "newAd",
      "type": "event"
    },
    {
      "anonymous": false,
      "inputs": [
        {
          "indexed": false,
          "internalType": "address",
          "name": "addr",
          "type": "address"
        }
      ],
      "name": "newAdvertiser",
      "type": "event"
    },
    {
      "inputs": [],
      "name": "bidCount",
      "outputs": [
        {
          "internalType": "uint256",
          "name": "",
          "type": "uint256"
        }
      ],
      "stateMutability": "view",
      "type": "function"
    },
    {
      "inputs": [],
      "name": "currentBid",
      "outputs": [
        {
          "internalType": "uint256",
          "name": "",
          "type": "uint256"
        }
      ],
      "stateMutability": "view",
      "type": "function"
    },
    {
      "inputs": [
        {
          "internalType": "address",
          "name": "_address",
          "type": "address"
        }
      ],
      "name": "isRegisteredAddress",
      "outputs": [
        {
          "internalType": "bool",
          "name": "",
          "type": "bool"
        }
      ],
      "stateMutability": "view",
      "type": "function"
    },
    {
      "inputs": [],
      "name": "owner",
      "outputs": [
        {
          "internalType": "address",
          "name": "",
          "type": "address"
        }
      ],
      "stateMutability": "view",
      "type": "function"
    },
    {
      "inputs": [
        {
          "internalType": "uint256",
          "name": "_value",
          "type": "uint256"
        }
      ],
      "name": "placeBid",
      "outputs": [],
      "stateMutability": "nonpayable",
      "type": "function"
    },
    {
      "inputs": [
        {
          "internalType": "address",
          "name": "_address",
          "type": "address"
        }
      ],
      "name": "register",
      "outputs": [],
      "stateMutability": "nonpayable",
      "type": "function"
    },
    {
      "inputs": [],
      "name": "renounceOwnership",
      "outputs": [],
      "stateMutability": "nonpayable",
      "type": "function"
    },
    {
      "inputs": [],
      "name": "swap",
      "outputs": [
        {
          "internalType": "contract Swap",
          "name": "",
          "type": "address"
        }
      ],
      "stateMutability": "view",
      "type": "function"
    },
    {
      "inputs": [],
      "name": "token",
      "outputs": [
        {
          "internalType": "contract AEXToken",
          "name": "",
          "type": "address"
        }
      ],
      "stateMutability": "view",
      "type": "function"
    },
    {
      "inputs": [
        {
          "internalType": "address",
          "name": "newOwner",
          "type": "address"
        }
      ],
      "name": "transferOwnership",
      "outputs": [],
      "stateMutability": "nonpayable",
      "type": "function"
    }
  ],
  "bytecode": "0x608060405260006004553480156200001657600080fd5b50604051620014f1380380620014f183398181016040528101906200003c9190620002cd565b6200005c620000506200019060201b60201c565b6200019860201b60201c565b8160058190555080600160006101000a81548173ffffffffffffffffffffffffffffffffffffffff021916908373ffffffffffffffffffffffffffffffffffffffff160217905550600160009054906101000a900473ffffffffffffffffffffffffffffffffffffffff1673ffffffffffffffffffffffffffffffffffffffff1663fc0c546a6040518163ffffffff1660e01b815260040160206040518083038186803b1580156200010d57600080fd5b505afa15801562000122573d6000803e3d6000fd5b505050506040513d601f19601f82011682018060405250810190620001489190620002a1565b600260006101000a81548173ffffffffffffffffffffffffffffffffffffffff021916908373ffffffffffffffffffffffffffffffffffffffff1602179055505050620003c2565b600033905090565b60008060009054906101000a900473ffffffffffffffffffffffffffffffffffffffff169050816000806101000a81548173ffffffffffffffffffffffffffffffffffffffff021916908373ffffffffffffffffffffffffffffffffffffffff1602179055508173ffffffffffffffffffffffffffffffffffffffff168173ffffffffffffffffffffffffffffffffffffffff167f8be0079c531659141344cd1fd0a4f28419497f9722a3daafe3b4186f6b6457e060405160405180910390a35050565b6000815190506200026d8162000374565b92915050565b60008151905062000284816200038e565b92915050565b6000815190506200029b81620003a8565b92915050565b600060208284031215620002b457600080fd5b6000620002c4848285016200025c565b91505092915050565b60008060408385031215620002e157600080fd5b6000620002f1858286016200028a565b9250506020620003048582860162000273565b9150509250929050565b60006200031b826200034a565b9050919050565b60006200032f826200030e565b9050919050565b600062000343826200030e565b9050919050565b600073ffffffffffffffffffffffffffffffffffffffff82169050919050565b6000819050919050565b6200037f8162000322565b81146200038b57600080fd5b50565b620003998162000336565b8114620003a557600080fd5b50565b620003b3816200036a565b8114620003bf57600080fd5b50565b61111f80620003d26000396000f3fe608060405234801561001057600080fd5b506004361061009e5760003560e01c8063b40a562711610066578063b40a562714610121578063db0c7ca81461013f578063def181011461016f578063f2fde38b1461018d578063fc0c546a146101a95761009e565b80634420e486146100a3578063715018a6146100bf5780638119c065146100c95780638da5cb5b146100e75780639979ef4514610105575b600080fd5b6100bd60048036038101906100b89190610aef565b6101c7565b005b6100c7610455565b005b6100d16104dd565b6040516100de9190610e4c565b60405180910390f35b6100ef610503565b6040516100fc9190610dc4565b60405180910390f35b61011f600480360381019061011a9190610b41565b61052c565b005b61012961083a565b6040516101369190610f47565b60405180910390f35b61015960048036038101906101549190610aef565b610840565b6040516101669190610e16565b60405180910390f35b6101776108a7565b6040516101849190610f47565b60405180910390f35b6101a760048036038101906101a29190610aef565b6108b1565b005b6101b16109a9565b6040516101be9190610e31565b60405180910390f35b6101cf6109cf565b73ffffffffffffffffffffffffffffffffffffffff166101ed610503565b73ffffffffffffffffffffffffffffffffffffffff1614610243576040517f08c379a000000000000000000000000000000000000000000000000000000000815260040161023a90610ec7565b60405180910390fd5b6000600260009054906101000a900473ffffffffffffffffffffffffffffffffffffffff1673ffffffffffffffffffffffffffffffffffffffff166370a08231836040518263ffffffff1660e01b81526004016102a09190610dc4565b60206040518083038186803b1580156102b857600080fd5b505afa1580156102cc573d6000803e3d6000fd5b505050506040513d601f19601f820116820180604052508101906102f09190610b6a565b11610330576040517f08c379a000000000000000000000000000000000000000000000000000000000815260040161032790610f27565b60405180910390fd5b60001515600360008373ffffffffffffffffffffffffffffffffffffffff1673ffffffffffffffffffffffffffffffffffffffff16815260200190815260200160002060009054906101000a900460ff161515146103c3576040517f08c379a00000000000000000000000000000000000000000000000000000000081526004016103ba90610e87565b60405180910390fd5b6001600360008373ffffffffffffffffffffffffffffffffffffffff1673ffffffffffffffffffffffffffffffffffffffff16815260200190815260200160002060006101000a81548160ff0219169083151502179055507f0105f6c094a099ddea728db989def4f78de0e6d426fe3d417e1c3ce4441f5a388160405161044a9190610dc4565b60405180910390a150565b61045d6109cf565b73ffffffffffffffffffffffffffffffffffffffff1661047b610503565b73ffffffffffffffffffffffffffffffffffffffff16146104d1576040517f08c379a00000000000000000000000000000000000000000000000000000000081526004016104c890610ec7565b60405180910390fd5b6104db60006109d7565b565b600160009054906101000a900473ffffffffffffffffffffffffffffffffffffffff1681565b60008060009054906101000a900473ffffffffffffffffffffffffffffffffffffffff16905090565b60011515600360003373ffffffffffffffffffffffffffffffffffffffff1673ffffffffffffffffffffffffffffffffffffffff16815260200190815260200160002060009054906101000a900460ff161515146105bf576040517f08c379a00000000000000000000000000000000000000000000000000000000081526004016105b690610f07565b60405180910390fd5b80600260009054906101000a900473ffffffffffffffffffffffffffffffffffffffff1673ffffffffffffffffffffffffffffffffffffffff166370a08231336040518263ffffffff1660e01b815260040161061b9190610dc4565b60206040518083038186803b15801561063357600080fd5b505afa158015610647573d6000803e3d6000fd5b505050506040513d601f19601f8201168201806040525081019061066b9190610b6a565b10156106ac576040517f08c379a00000000000000000000000000000000000000000000000000000000081526004016106a390610ee7565b60405180910390fd5b60055481116106f0576040517f08c379a00000000000000000000000000000000000000000000000000000000081526004016106e790610ea7565b60405180910390fd5b600260009054906101000a900473ffffffffffffffffffffffffffffffffffffffff1673ffffffffffffffffffffffffffffffffffffffff166323b872dd3330846040518463ffffffff1660e01b815260040161074f93929190610ddf565b602060405180830381600087803b15801561076957600080fd5b505af115801561077d573d6000803e3d6000fd5b505050506040513d601f19601f820116820180604052508101906107a19190610b18565b507fddf252ad1be2c89b69c2b068fc378daa952ba7f163c4a11628f55a4df523b3ef3330836040516107d593929190610ddf565b60405180910390a1600460008154809291906107f09061102c565b9190505550806005819055507f9565d7c8e506cdb71fd2c68a5d00ad8f7a8afc7391506dc141b0cb0397de69646004548260405161082f929190610f62565b60405180910390a150565b60045481565b6000600360008373ffffffffffffffffffffffffffffffffffffffff1673ffffffffffffffffffffffffffffffffffffffff16815260200190815260200160002060009054906101000a900460ff161561089d57600190506108a2565b600090505b919050565b6000600554905090565b6108b96109cf565b73ffffffffffffffffffffffffffffffffffffffff166108d7610503565b73ffffffffffffffffffffffffffffffffffffffff161461092d576040517f08c379a000000000000000000000000000000000000000000000000000000000815260040161092490610ec7565b60405180910390fd5b600073ffffffffffffffffffffffffffffffffffffffff168173ffffffffffffffffffffffffffffffffffffffff16141561099d576040517f08c379a000000000000000000000000000000000000000000000000000000000815260040161099490610e67565b60405180910390fd5b6109a6816109d7565b50565b600260009054906101000a900473ffffffffffffffffffffffffffffffffffffffff1681565b600033905090565b60008060009054906101000a900473ffffffffffffffffffffffffffffffffffffffff169050816000806101000a81548173ffffffffffffffffffffffffffffffffffffffff021916908373ffffffffffffffffffffffffffffffffffffffff1602179055508173ffffffffffffffffffffffffffffffffffffffff168173ffffffffffffffffffffffffffffffffffffffff167f8be0079c531659141344cd1fd0a4f28419497f9722a3daafe3b4186f6b6457e060405160405180910390a35050565b600081359050610aaa816110a4565b92915050565b600081519050610abf816110bb565b92915050565b600081359050610ad4816110d2565b92915050565b600081519050610ae9816110d2565b92915050565b600060208284031215610b0157600080fd5b6000610b0f84828501610a9b565b91505092915050565b600060208284031215610b2a57600080fd5b6000610b3884828501610ab0565b91505092915050565b600060208284031215610b5357600080fd5b6000610b6184828501610ac5565b91505092915050565b600060208284031215610b7c57600080fd5b6000610b8a84828501610ada565b91505092915050565b610b9c81610f9c565b82525050565b610bab81610fae565b82525050565b610bba81610fe4565b82525050565b610bc981611008565b82525050565b6000610bdc602683610f8b565b91507f4f776e61626c653a206e6577206f776e657220697320746865207a65726f206160008301527f64647265737300000000000000000000000000000000000000000000000000006020830152604082019050919050565b6000610c42601d83610f8b565b91507f6164647265737320697320616c726561647920726567697374657265640000006000830152602082019050919050565b6000610c82601c83610f8b565b91507f706c65617365206269642061626f76652063757272656e7420626964000000006000830152602082019050919050565b6000610cc2602083610f8b565b91507f4f776e61626c653a2063616c6c6572206973206e6f7420746865206f776e65726000830152602082019050919050565b6000610d02601d83610f8b565b91507f796f7520646f206e6f74206861766520656e6f75676820746f6b656e730000006000830152602082019050919050565b6000610d42601c83610f8b565b91507f706c6561736520726567697374657220796f75722061646472657373000000006000830152602082019050919050565b6000610d82601b83610f8b565b91507f706c65617365206275792041455820746f6b656e7320666972737400000000006000830152602082019050919050565b610dbe81610fda565b82525050565b6000602082019050610dd96000830184610b93565b92915050565b6000606082019050610df46000830186610b93565b610e016020830185610b93565b610e0e6040830184610db5565b949350505050565b6000602082019050610e2b6000830184610ba2565b92915050565b6000602082019050610e466000830184610bb1565b92915050565b6000602082019050610e616000830184610bc0565b92915050565b60006020820190508181036000830152610e8081610bcf565b9050919050565b60006020820190508181036000830152610ea081610c35565b9050919050565b60006020820190508181036000830152610ec081610c75565b9050919050565b60006020820190508181036000830152610ee081610cb5565b9050919050565b60006020820190508181036000830152610f0081610cf5565b9050919050565b60006020820190508181036000830152610f2081610d35565b9050919050565b60006020820190508181036000830152610f4081610d75565b9050919050565b6000602082019050610f5c6000830184610db5565b92915050565b6000604082019050610f776000830185610db5565b610f846020830184610db5565b9392505050565b600082825260208201905092915050565b6000610fa782610fba565b9050919050565b60008115159050919050565b600073ffffffffffffffffffffffffffffffffffffffff82169050919050565b6000819050919050565b6000610fef82610ff6565b9050919050565b600061100182610fba565b9050919050565b60006110138261101a565b9050919050565b600061102582610fba565b9050919050565b600061103782610fda565b91507fffffffffffffffffffffffffffffffffffffffffffffffffffffffffffffffff82141561106a57611069611075565b5b600182019050919050565b7f4e487b7100000000000000000000000000000000000000000000000000000000600052601160045260246000fd5b6110ad81610f9c565b81146110b857600080fd5b50565b6110c481610fae565b81146110cf57600080fd5b50565b6110db81610fda565b81146110e657600080fd5b5056fea26469706673582212206832dcce47b02b6e046372528ed6cfe5cf968641ab975d18d8cfaed5e3f17ca064736f6c63430008000033",
  "linkReferences": {},
  "deployedLinkReferences": {}
}