{
  "_format": "hh-sol-artifact-1",
  "contractName": "Bid",
  "sourceName": "contracts/Bid.sol",
  "abi": [
    {
      "inputs": [
        {
          "internalType": "uint256",
          "name": "_curBid",
          "type": "uint256"
        }
      ],
      "stateMutability": "nonpayable",
      "type": "constructor"
    },
    {
      "anonymous": false,
      "inputs": [
        {
          "indexed": true,
          "internalType": "address",
          "name": "previousOwner",
          "type": "address"
        },
        {
          "indexed": true,
          "internalType": "address",
          "name": "newOwner",
          "type": "address"
        }
      ],
      "name": "OwnershipTransferred",
      "type": "event"
    },
    {
      "anonymous": false,
      "inputs": [
        {
          "indexed": false,
          "internalType": "uint256",
          "name": "adId",
          "type": "uint256"
        },
        {
          "indexed": false,
          "internalType": "uint256",
          "name": "value",
          "type": "uint256"
        }
      ],
      "name": "newAd",
      "type": "event"
    },
    {
      "anonymous": false,
      "inputs": [
        {
          "indexed": false,
          "internalType": "address",
          "name": "addr",
          "type": "address"
        }
      ],
      "name": "newAdvertiser",
      "type": "event"
    },
    {
      "inputs": [
        {
          "internalType": "uint256",
          "name": "",
          "type": "uint256"
        }
      ],
      "name": "advertisers",
      "outputs": [
        {
          "internalType": "address",
          "name": "id",
          "type": "address"
        },
        {
          "internalType": "uint256",
          "name": "bidCount",
          "type": "uint256"
        },
        {
          "internalType": "bool",
          "name": "isRegistered",
          "type": "bool"
        }
      ],
      "stateMutability": "view",
      "type": "function"
    },
    {
      "inputs": [],
      "name": "owner",
      "outputs": [
        {
          "internalType": "address",
          "name": "",
          "type": "address"
        }
      ],
      "stateMutability": "view",
      "type": "function"
    },
    {
      "inputs": [
        {
          "internalType": "uint256",
          "name": "_value",
          "type": "uint256"
        },
        {
          "components": [
            {
              "internalType": "address",
              "name": "id",
              "type": "address"
            },
            {
              "internalType": "uint256",
              "name": "bidCount",
              "type": "uint256"
            },
            {
              "internalType": "bool",
              "name": "isRegistered",
              "type": "bool"
            }
          ],
          "internalType": "struct Bid.Advertiser",
          "name": "_advertiser",
          "type": "tuple"
        }
      ],
      "name": "placeBid",
      "outputs": [],
      "stateMutability": "nonpayable",
      "type": "function"
    },
    {
      "inputs": [
        {
          "internalType": "address",
          "name": "_address",
          "type": "address"
        }
      ],
      "name": "register",
      "outputs": [],
      "stateMutability": "nonpayable",
      "type": "function"
    },
    {
      "inputs": [],
      "name": "renounceOwnership",
      "outputs": [],
      "stateMutability": "nonpayable",
      "type": "function"
    },
    {
      "inputs": [
        {
          "internalType": "address",
          "name": "newOwner",
          "type": "address"
        }
      ],
      "name": "transferOwnership",
      "outputs": [],
      "stateMutability": "nonpayable",
      "type": "function"
    }
  ],
  "bytecode": "0x6080604052600060035534801561001557600080fd5b50604051610de4380380610de483398181016040528101906100379190610141565b61005361004861006060201b60201c565b61006860201b60201c565b806004819055505061018b565b600033905090565b60008060009054906101000a900473ffffffffffffffffffffffffffffffffffffffff169050816000806101000a81548173ffffffffffffffffffffffffffffffffffffffff021916908373ffffffffffffffffffffffffffffffffffffffff1602179055508173ffffffffffffffffffffffffffffffffffffffff168173ffffffffffffffffffffffffffffffffffffffff167f8be0079c531659141344cd1fd0a4f28419497f9722a3daafe3b4186f6b6457e060405160405180910390a35050565b60008151905061013b81610174565b92915050565b60006020828403121561015357600080fd5b60006101618482850161012c565b91505092915050565b6000819050919050565b61017d8161016a565b811461018857600080fd5b50565b610c4a8061019a6000396000f3fe608060405234801561001057600080fd5b50600436106100625760003560e01c80634420e48614610067578063715018a6146100835780638da5cb5b1461008d578063baf19228146100ab578063f2ac8065146100dd578063f2fde38b146100f9575b600080fd5b610081600480360381019061007c91906107c2565b610115565b005b61008b610361565b005b6100956103e9565b6040516100a291906109a3565b60405180910390f35b6100c560048036038101906100c091906107eb565b610412565b6040516100d4939291906109be565b60405180910390f35b6100f760048036038101906100f29190610814565b610479565b005b610113600480360381019061010e91906107c2565b61055f565b005b61011d610657565b73ffffffffffffffffffffffffffffffffffffffff1661013b6103e9565b73ffffffffffffffffffffffffffffffffffffffff1614610191576040517f08c379a000000000000000000000000000000000000000000000000000000000815260040161018890610a35565b60405180910390fd5b60005b60018054905081101561035d57600181815481106101db577f4e487b7100000000000000000000000000000000000000000000000000000000600052603260045260246000fd5b906000526020600020906003020160000160009054906101000a900473ffffffffffffffffffffffffffffffffffffffff1673ffffffffffffffffffffffffffffffffffffffff168273ffffffffffffffffffffffffffffffffffffffff161461034a57600160405180606001604052808473ffffffffffffffffffffffffffffffffffffffff1681526020016000815260200160011515815250908060018154018082558091505060019003906000526020600020906003020160009091909190915060008201518160000160006101000a81548173ffffffffffffffffffffffffffffffffffffffff021916908373ffffffffffffffffffffffffffffffffffffffff1602179055506020820151816001015560408201518160020160006101000a81548160ff02191690831515021790555050507f0105f6c094a099ddea728db989def4f78de0e6d426fe3d417e1c3ce4441f5a388260405161034191906109a3565b60405180910390a15b808061035590610b28565b915050610194565b5050565b610369610657565b73ffffffffffffffffffffffffffffffffffffffff166103876103e9565b73ffffffffffffffffffffffffffffffffffffffff16146103dd576040517f08c379a00000000000000000000000000000000000000000000000000000000081526004016103d490610a35565b60405180910390fd5b6103e7600061065f565b565b60008060009054906101000a900473ffffffffffffffffffffffffffffffffffffffff16905090565b6001818154811061042257600080fd5b90600052602060002090600302016000915090508060000160009054906101000a900473ffffffffffffffffffffffffffffffffffffffff16908060010154908060020160009054906101000a900460ff16905083565b60045482116104bd576040517f08c379a00000000000000000000000000000000000000000000000000000000081526004016104b490610a15565b60405180910390fd5b600115158160400151151514610508576040517f08c379a00000000000000000000000000000000000000000000000000000000081526004016104ff90610a55565b60405180910390fd5b6003600081548092919061051b90610b28565b91905055507f9565d7c8e506cdb71fd2c68a5d00ad8f7a8afc7391506dc141b0cb0397de696460035483604051610553929190610a75565b60405180910390a15050565b610567610657565b73ffffffffffffffffffffffffffffffffffffffff166105856103e9565b73ffffffffffffffffffffffffffffffffffffffff16146105db576040517f08c379a00000000000000000000000000000000000000000000000000000000081526004016105d290610a35565b60405180910390fd5b600073ffffffffffffffffffffffffffffffffffffffff168173ffffffffffffffffffffffffffffffffffffffff16141561064b576040517f08c379a0000000000000000000000000000000000000000000000000000000008152600401610642906109f5565b60405180910390fd5b6106548161065f565b50565b600033905090565b60008060009054906101000a900473ffffffffffffffffffffffffffffffffffffffff169050816000806101000a81548173ffffffffffffffffffffffffffffffffffffffff021916908373ffffffffffffffffffffffffffffffffffffffff1602179055508173ffffffffffffffffffffffffffffffffffffffff168173ffffffffffffffffffffffffffffffffffffffff167f8be0079c531659141344cd1fd0a4f28419497f9722a3daafe3b4186f6b6457e060405160405180910390a35050565b60008135905061073281610bcf565b92915050565b60008135905061074781610be6565b92915050565b60006060828403121561075f57600080fd5b6107696060610a9e565b9050600061077984828501610723565b600083015250602061078d848285016107ad565b60208301525060406107a184828501610738565b60408301525092915050565b6000813590506107bc81610bfd565b92915050565b6000602082840312156107d457600080fd5b60006107e284828501610723565b91505092915050565b6000602082840312156107fd57600080fd5b600061080b848285016107ad565b91505092915050565b6000806080838503121561082757600080fd5b6000610835858286016107ad565b92505060206108468582860161074d565b9150509250929050565b61085981610ae0565b82525050565b61086881610af2565b82525050565b600061087b602683610acf565b91507f4f776e61626c653a206e6577206f776e657220697320746865207a65726f206160008301527f64647265737300000000000000000000000000000000000000000000000000006020830152604082019050919050565b60006108e1601c83610acf565b91507f706c65617365206269642061626f76652063757272656e7420626964000000006000830152602082019050919050565b6000610921602083610acf565b91507f4f776e61626c653a2063616c6c6572206973206e6f7420746865206f776e65726000830152602082019050919050565b6000610961601c83610acf565b91507f706c6561736520726567697374657220796f75722061646472657373000000006000830152602082019050919050565b61099d81610b1e565b82525050565b60006020820190506109b86000830184610850565b92915050565b60006060820190506109d36000830186610850565b6109e06020830185610994565b6109ed604083018461085f565b949350505050565b60006020820190508181036000830152610a0e8161086e565b9050919050565b60006020820190508181036000830152610a2e816108d4565b9050919050565b60006020820190508181036000830152610a4e81610914565b9050919050565b60006020820190508181036000830152610a6e81610954565b9050919050565b6000604082019050610a8a6000830185610994565b610a976020830184610994565b9392505050565b6000604051905081810181811067ffffffffffffffff82111715610ac557610ac4610ba0565b5b8060405250919050565b600082825260208201905092915050565b6000610aeb82610afe565b9050919050565b60008115159050919050565b600073ffffffffffffffffffffffffffffffffffffffff82169050919050565b6000819050919050565b6000610b3382610b1e565b91507fffffffffffffffffffffffffffffffffffffffffffffffffffffffffffffffff821415610b6657610b65610b71565b5b600182019050919050565b7f4e487b7100000000000000000000000000000000000000000000000000000000600052601160045260246000fd5b7f4e487b7100000000000000000000000000000000000000000000000000000000600052604160045260246000fd5b610bd881610ae0565b8114610be357600080fd5b50565b610bef81610af2565b8114610bfa57600080fd5b50565b610c0681610b1e565b8114610c1157600080fd5b5056fea26469706673582212203d664407d6be2cfd7f9008d6d8ebda4d6c162fa8bd4ee319b3e103e40c83391264736f6c63430008000033",
  "linkReferences": {},
  "deployedLinkReferences": {}
}