{
  "_format": "hh-sol-artifact-1",
  "contractName": "Swap",
  "sourceName": "contracts/Swap.sol",
  "abi": [
    {
      "inputs": [
        {
          "internalType": "contract AEXToken",
          "name": "_token",
          "type": "address"
        }
      ],
      "stateMutability": "nonpayable",
      "type": "constructor"
    },
    {
      "anonymous": false,
      "inputs": [
        {
          "indexed": true,
          "internalType": "address",
          "name": "previousOwner",
          "type": "address"
        },
        {
          "indexed": true,
          "internalType": "address",
          "name": "newOwner",
          "type": "address"
        }
      ],
      "name": "OwnershipTransferred",
      "type": "event"
    },
    {
      "anonymous": false,
      "inputs": [
        {
          "indexed": false,
          "internalType": "address",
          "name": "account",
          "type": "address"
        },
        {
          "indexed": false,
          "internalType": "address",
          "name": "token",
          "type": "address"
        },
        {
          "indexed": false,
          "internalType": "uint256",
          "name": "amount",
          "type": "uint256"
        },
        {
          "indexed": false,
          "internalType": "uint256",
          "name": "rate",
          "type": "uint256"
        }
      ],
      "name": "TokensPurchased",
      "type": "event"
    },
    {
      "anonymous": false,
      "inputs": [
        {
          "indexed": false,
          "internalType": "address",
          "name": "account",
          "type": "address"
        },
        {
          "indexed": false,
          "internalType": "address",
          "name": "token",
          "type": "address"
        },
        {
          "indexed": false,
          "internalType": "uint256",
          "name": "amount",
          "type": "uint256"
        },
        {
          "indexed": false,
          "internalType": "uint256",
          "name": "rate",
          "type": "uint256"
        }
      ],
      "name": "TokensSold",
      "type": "event"
    },
    {
      "inputs": [],
      "name": "buyTokens",
      "outputs": [],
      "stateMutability": "payable",
      "type": "function"
    },
    {
      "inputs": [
        {
          "internalType": "address",
          "name": "_addr",
          "type": "address"
        }
      ],
      "name": "getEthBalance",
      "outputs": [
        {
          "internalType": "uint256",
          "name": "",
          "type": "uint256"
        }
      ],
      "stateMutability": "view",
      "type": "function"
    },
    {
      "inputs": [],
      "name": "getRate",
      "outputs": [
        {
          "internalType": "uint256",
          "name": "",
          "type": "uint256"
        }
      ],
      "stateMutability": "view",
      "type": "function"
    },
    {
      "inputs": [],
      "name": "getTokenAddress",
      "outputs": [
        {
          "internalType": "address",
          "name": "",
          "type": "address"
        }
      ],
      "stateMutability": "view",
      "type": "function"
    },
    {
      "inputs": [
        {
          "internalType": "address",
          "name": "_addr",
          "type": "address"
        }
      ],
      "name": "getTokenBalance",
      "outputs": [
        {
          "internalType": "uint256",
          "name": "",
          "type": "uint256"
        }
      ],
      "stateMutability": "view",
      "type": "function"
    },
    {
      "inputs": [],
      "name": "name",
      "outputs": [
        {
          "internalType": "string",
          "name": "",
          "type": "string"
        }
      ],
      "stateMutability": "view",
      "type": "function"
    },
    {
      "inputs": [],
      "name": "owner",
      "outputs": [
        {
          "internalType": "address",
          "name": "",
          "type": "address"
        }
      ],
      "stateMutability": "view",
      "type": "function"
    },
    {
      "inputs": [],
      "name": "rate",
      "outputs": [
        {
          "internalType": "uint256",
          "name": "",
          "type": "uint256"
        }
      ],
      "stateMutability": "view",
      "type": "function"
    },
    {
      "inputs": [],
      "name": "renounceOwnership",
      "outputs": [],
      "stateMutability": "nonpayable",
      "type": "function"
    },
    {
      "inputs": [
        {
          "internalType": "uint256",
          "name": "_amount",
          "type": "uint256"
        }
      ],
      "name": "sellTokens",
      "outputs": [],
      "stateMutability": "nonpayable",
      "type": "function"
    },
    {
      "inputs": [],
      "name": "token",
      "outputs": [
        {
          "internalType": "contract AEXToken",
          "name": "",
          "type": "address"
        }
      ],
      "stateMutability": "view",
      "type": "function"
    },
    {
      "inputs": [
        {
          "internalType": "address",
          "name": "newOwner",
          "type": "address"
        }
      ],
      "name": "transferOwnership",
      "outputs": [],
      "stateMutability": "nonpayable",
      "type": "function"
    }
  ],
  "bytecode": "0x60806040526040518060400160405280601881526020017f4574685377617020496e7374616e742045786368616e676500000000000000008152506001908051906020019062000051929190620001be565b5060646003553480156200006457600080fd5b50604051620016233803806200162383398181016040528101906200008a919062000285565b620000aa6200009e620000f260201b60201c565b620000fa60201b60201c565b80600260006101000a81548173ffffffffffffffffffffffffffffffffffffffff021916908373ffffffffffffffffffffffffffffffffffffffff1602179055505062000378565b600033905090565b60008060009054906101000a900473ffffffffffffffffffffffffffffffffffffffff169050816000806101000a81548173ffffffffffffffffffffffffffffffffffffffff021916908373ffffffffffffffffffffffffffffffffffffffff1602179055508173ffffffffffffffffffffffffffffffffffffffff168173ffffffffffffffffffffffffffffffffffffffff167f8be0079c531659141344cd1fd0a4f28419497f9722a3daafe3b4186f6b6457e060405160405180910390a35050565b828054620001cc90620002f9565b90600052602060002090601f016020900481019282620001f057600085556200023c565b82601f106200020b57805160ff19168380011785556200023c565b828001600101855582156200023c579182015b828111156200023b5782518255916020019190600101906200021e565b5b5090506200024b91906200024f565b5090565b5b808211156200026a57600081600090555060010162000250565b5090565b6000815190506200027f816200035e565b92915050565b6000602082840312156200029857600080fd5b6000620002a8848285016200026e565b91505092915050565b6000620002be82620002d9565b9050919050565b6000620002d282620002b1565b9050919050565b600073ffffffffffffffffffffffffffffffffffffffff82169050919050565b600060028204905060018216806200031257607f821691505b602082108114156200032957620003286200032f565b5b50919050565b7f4e487b7100000000000000000000000000000000000000000000000000000000600052602260045260246000fd5b6200036981620002c5565b81146200037557600080fd5b50565b61129b80620003886000396000f3fe6080604052600436106100a75760003560e01c80636c11bcd3116100645780636c11bcd3146101d2578063715018a6146101fb5780638da5cb5b14610212578063d0febe4c1461023d578063f2fde38b14610247578063fc0c546a14610270576100a7565b806306fdde03146100ac57806310fe9ae8146100d75780632c4e722e146101025780633aecd0e31461012d5780634d2301cc1461016a578063679aefce146101a7575b600080fd5b3480156100b857600080fd5b506100c161029b565b6040516100ce9190610f2d565b60405180910390f35b3480156100e357600080fd5b506100ec610329565b6040516100f99190610e52565b60405180910390f35b34801561010e57600080fd5b50610117610353565b6040516101249190610fef565b60405180910390f35b34801561013957600080fd5b50610154600480360381019061014f9190610b96565b610359565b6040516101619190610fef565b60405180910390f35b34801561017657600080fd5b50610191600480360381019061018c9190610b96565b61040d565b60405161019e9190610fef565b60405180910390f35b3480156101b357600080fd5b506101bc61042e565b6040516101c99190610fef565b60405180910390f35b3480156101de57600080fd5b506101f960048036038101906101f49190610be8565b610438565b005b34801561020757600080fd5b506102106106b6565b005b34801561021e57600080fd5b5061022761073e565b6040516102349190610e52565b60405180910390f35b610245610767565b005b34801561025357600080fd5b5061026e60048036038101906102699190610b96565b610958565b005b34801561027c57600080fd5b50610285610a50565b6040516102929190610f12565b60405180910390f35b600180546102a890611150565b80601f01602080910402602001604051908101604052809291908181526020018280546102d490611150565b80156103215780601f106102f657610100808354040283529160200191610321565b820191906000526020600020905b81548152906001019060200180831161030457829003601f168201915b505050505081565b6000600260009054906101000a900473ffffffffffffffffffffffffffffffffffffffff16905090565b60035481565b6000600260009054906101000a900473ffffffffffffffffffffffffffffffffffffffff1673ffffffffffffffffffffffffffffffffffffffff166370a08231836040518263ffffffff1660e01b81526004016103b69190610e52565b60206040518083038186803b1580156103ce57600080fd5b505afa1580156103e2573d6000803e3d6000fd5b505050506040513d601f19601f820116820180604052508101906104069190610c11565b9050919050565b60008173ffffffffffffffffffffffffffffffffffffffff16319050919050565b6000600354905090565b80600260009054906101000a900473ffffffffffffffffffffffffffffffffffffffff1673ffffffffffffffffffffffffffffffffffffffff166370a08231336040518263ffffffff1660e01b81526004016104949190610e52565b60206040518083038186803b1580156104ac57600080fd5b505afa1580156104c0573d6000803e3d6000fd5b505050506040513d601f19601f820116820180604052508101906104e49190610c11565b1015610525576040517f08c379a000000000000000000000000000000000000000000000000000000000815260040161051c90610fcf565b60405180910390fd5b6000600354826105359190611026565b90508047101561057a576040517f08c379a000000000000000000000000000000000000000000000000000000000815260040161057190610f8f565b60405180910390fd5b600260009054906101000a900473ffffffffffffffffffffffffffffffffffffffff1673ffffffffffffffffffffffffffffffffffffffff166323b872dd3330856040518463ffffffff1660e01b81526004016105d993929190610e6d565b602060405180830381600087803b1580156105f357600080fd5b505af1158015610607573d6000803e3d6000fd5b505050506040513d601f19601f8201168201806040525081019061062b9190610bbf565b503373ffffffffffffffffffffffffffffffffffffffff166108fc829081150290604051600060405180830381858888f19350505050158015610672573d6000803e3d6000fd5b507f697c42d55a5e1fed3f464ec6f38b32546a0bd368dc8068b065c67566d73f32903330846003546040516106aa9493929190610ea4565b60405180910390a15050565b6106be610a76565b73ffffffffffffffffffffffffffffffffffffffff166106dc61073e565b73ffffffffffffffffffffffffffffffffffffffff1614610732576040517f08c379a000000000000000000000000000000000000000000000000000000000815260040161072990610faf565b60405180910390fd5b61073c6000610a7e565b565b60008060009054906101000a900473ffffffffffffffffffffffffffffffffffffffff16905090565b6000600354346107779190611057565b905080600260009054906101000a900473ffffffffffffffffffffffffffffffffffffffff1673ffffffffffffffffffffffffffffffffffffffff166370a08231306040518263ffffffff1660e01b81526004016107d59190610e52565b60206040518083038186803b1580156107ed57600080fd5b505afa158015610801573d6000803e3d6000fd5b505050506040513d601f19601f820116820180604052508101906108259190610c11565b1015610866576040517f08c379a000000000000000000000000000000000000000000000000000000000815260040161085d90610f4f565b60405180910390fd5b600260009054906101000a900473ffffffffffffffffffffffffffffffffffffffff1673ffffffffffffffffffffffffffffffffffffffff1663a9059cbb33836040518363ffffffff1660e01b81526004016108c3929190610ee9565b602060405180830381600087803b1580156108dd57600080fd5b505af11580156108f1573d6000803e3d6000fd5b505050506040513d601f19601f820116820180604052508101906109159190610bbf565b507f6faf93231a456e552dbc9961f58d9713ee4f2e69d15f1975b050ef0911053a7b30338360035460405161094d9493929190610ea4565b60405180910390a150565b610960610a76565b73ffffffffffffffffffffffffffffffffffffffff1661097e61073e565b73ffffffffffffffffffffffffffffffffffffffff16146109d4576040517f08c379a00000000000000000000000000000000000000000000000000000000081526004016109cb90610faf565b60405180910390fd5b600073ffffffffffffffffffffffffffffffffffffffff168173ffffffffffffffffffffffffffffffffffffffff161415610a44576040517f08c379a0000000000000000000000000000000000000000000000000000000008152600401610a3b90610f6f565b60405180910390fd5b610a4d81610a7e565b50565b600260009054906101000a900473ffffffffffffffffffffffffffffffffffffffff1681565b600033905090565b60008060009054906101000a900473ffffffffffffffffffffffffffffffffffffffff169050816000806101000a81548173ffffffffffffffffffffffffffffffffffffffff021916908373ffffffffffffffffffffffffffffffffffffffff1602179055508173ffffffffffffffffffffffffffffffffffffffff168173ffffffffffffffffffffffffffffffffffffffff167f8be0079c531659141344cd1fd0a4f28419497f9722a3daafe3b4186f6b6457e060405160405180910390a35050565b600081359050610b5181611220565b92915050565b600081519050610b6681611237565b92915050565b600081359050610b7b8161124e565b92915050565b600081519050610b908161124e565b92915050565b600060208284031215610ba857600080fd5b6000610bb684828501610b42565b91505092915050565b600060208284031215610bd157600080fd5b6000610bdf84828501610b57565b91505092915050565b600060208284031215610bfa57600080fd5b6000610c0884828501610b6c565b91505092915050565b600060208284031215610c2357600080fd5b6000610c3184828501610b81565b91505092915050565b610c43816110b1565b82525050565b610c52816110f9565b82525050565b6000610c638261100a565b610c6d8185611015565b9350610c7d81856020860161111d565b610c868161120f565b840191505092915050565b6000610c9e602483611015565b91507f636f6e747261637420646f6573206e6f74206861766520656e6f75676820746f60008301527f6b656e73000000000000000000000000000000000000000000000000000000006020830152604082019050919050565b6000610d04602683611015565b91507f4f776e61626c653a206e6577206f776e657220697320746865207a65726f206160008301527f64647265737300000000000000000000000000000000000000000000000000006020830152604082019050919050565b6000610d6a602e83611015565b91507f636f6e7472616374206f6620414558546f6b656e20646f65736e27742068617660008301527f6520656e6f7567682065746865720000000000000000000000000000000000006020830152604082019050919050565b6000610dd0602083611015565b91507f4f776e61626c653a2063616c6c6572206973206e6f7420746865206f776e65726000830152602082019050919050565b6000610e10601d83611015565b91507f796f7520646f206e6f74206861766520656e6f75676820746f6b656e730000006000830152602082019050919050565b610e4c816110ef565b82525050565b6000602082019050610e676000830184610c3a565b92915050565b6000606082019050610e826000830186610c3a565b610e8f6020830185610c3a565b610e9c6040830184610e43565b949350505050565b6000608082019050610eb96000830187610c3a565b610ec66020830186610c3a565b610ed36040830185610e43565b610ee06060830184610e43565b95945050505050565b6000604082019050610efe6000830185610c3a565b610f0b6020830184610e43565b9392505050565b6000602082019050610f276000830184610c49565b92915050565b60006020820190508181036000830152610f478184610c58565b905092915050565b60006020820190508181036000830152610f6881610c91565b9050919050565b60006020820190508181036000830152610f8881610cf7565b9050919050565b60006020820190508181036000830152610fa881610d5d565b9050919050565b60006020820190508181036000830152610fc881610dc3565b9050919050565b60006020820190508181036000830152610fe881610e03565b9050919050565b60006020820190506110046000830184610e43565b92915050565b600081519050919050565b600082825260208201905092915050565b6000611031826110ef565b915061103c836110ef565b92508261104c5761104b6111b1565b5b828204905092915050565b6000611062826110ef565b915061106d836110ef565b9250817fffffffffffffffffffffffffffffffffffffffffffffffffffffffffffffffff04831182151516156110a6576110a5611182565b5b828202905092915050565b60006110bc826110cf565b9050919050565b60008115159050919050565b600073ffffffffffffffffffffffffffffffffffffffff82169050919050565b6000819050919050565b60006111048261110b565b9050919050565b6000611116826110cf565b9050919050565b60005b8381101561113b578082015181840152602081019050611120565b8381111561114a576000848401525b50505050565b6000600282049050600182168061116857607f821691505b6020821081141561117c5761117b6111e0565b5b50919050565b7f4e487b7100000000000000000000000000000000000000000000000000000000600052601160045260246000fd5b7f4e487b7100000000000000000000000000000000000000000000000000000000600052601260045260246000fd5b7f4e487b7100000000000000000000000000000000000000000000000000000000600052602260045260246000fd5b6000601f19601f8301169050919050565b611229816110b1565b811461123457600080fd5b50565b611240816110c3565b811461124b57600080fd5b50565b611257816110ef565b811461126257600080fd5b5056fea2646970667358221220b987ce01fcd440d9f406ea51774a2edf5c6ff0ff292c158a67e70084353528b064736f6c63430008000033",
  "linkReferences": {},
  "deployedLinkReferences": {}
}